:20000000003A012041D8010039FB021039FB021039FB021039FB021039FB021039FB0210C7
:1C00200039FB021039FB021039FB021039FB021039FB021039FB021011FB021002
:200040002DE9F04FB34C05460121ADF1540DDFF8C882AE7894F83E000F912978452932DC12
:20006000452900F02486092916DC092901F0BF83002901F04184891E01F02B84491E01F071
:200080008584491E01F07E84C91E01F00D84491E01F0B48301F041BCB948DFF8E88210398C
:2000A0001C2935D92A3900F05E86491E01F05E84491E01F05784491F00F02A86891E00F0AA
:2000C000168601F02ABCD82917DCD82900F09280A03907293BD90839012941F21E84891EB2
:2000E0001A293ED9233901F01B84491E00F03F83093900F0B38101F010BCEB3960D00E39E3
:2001000058D0491E50D0491E48D0491E01F005BCDFE811F0630B260B0A0B030C9409030C61
:20012000030C030C84097909030C52091E09030C340C300C55082A085007030C3707250717
:200140001C0711070107030CF106EB068806DFE811F0050C010CFD0BA805F90BF50BF10B3C
:20016000A305DFE811F05B0529050005EF04E004CE04C204B904B004E20BA7048D0465040A
:200180002B040604F903830378036E03DA0BDA0BDA0B41032203DA0BDA0B0D0368680028CE
:2001A00000F0058700F081BD6868002800F0FF8600F07BBD6868002800F0F98600F075BD77
:2001C0006868007858B9002023F008F84FF4005000210FF0C1FF1BF063FA01F0DBBB4FF6EC
:2001E000FF7022F0FBFF0F994FF400500FF0B4FF01F0D0BB68681095002800F02B81046876
:20020000A07E23F09FF8071C08BF022000F00481D4F81C800026354698F80000A84200F31F
:20022000FE80042101EB0011C8B2801918F020FA0028119000F0EF801FF0FAFB002840F065
:20024000E780119800210E46017045E04FEA860A08EB0A0794F81A90B4F80CB0119DBA8828
:200260004846594620F08EFE129008AB08EB0A00BA880E9048461EF0A7FC129905EB06158E
:200280002D1D07F1040AFF2918D0B8B1AA489DF827700168F80838BF8C2010D39DF82600CD
:2002A000129F1622287102FB0710C188E980018900F10E0329810020EB6000E08620287037
:2002C0000E9880786870BAF80000119968800878761CF6B2401C087098F80000B042B5DCC3
:2002E000119EA07EB4F80CA094F80A9004F10E070021129732780E9035460C468A426BDCB7
:20030000204625F06DF85FEA00085ED00246002643E0C04608500020FC4800203001291899
:200320002818077902F8017B477902F8017B877902F8017BC7883F1202F8017B07790B1D1D
:200340004FBB4F7907BB087A02F8010B887A02F8010B4889001202F8010B087B02F8010B07
:200360008889001202F8010B087A834623F09DFF88B10969584613F00DFF02460BE0C046C9
:20038000844D0020D0540020987A02F8010B5889001202F8010B761CF6B22878B042BDDCB2
:2003A000002100910F98019002900391CDF810900594CDF81880079112990E985246092325
:2003C0000CF006FB404624F04EFF284621F0F2F823F040FE00201FE0080143191F79241D22
:2003E000A4B297B92818401D077867B9C078034623F05BFF641DA4B238B1184618F022FBEA
:20040000001984B201E0A41CA4B2491CC9B275E7119821F0CFF8102010990E91A3E108EBEA
:2004200085023878A189928808AB1EF0CDFB70B19DF82600014623F038FF40B1084618F004
:2004400001FB410824BF401CC0B23618F6B26D1CEDB2E1E628460E9000F0A9BD68680E95EC
:20046000002800F0A48500681090807E22F06AFF002800F077811098C06911900078002898
:2004800000F070818000801C18F0F2F80028129000F0668124F080FC1FF0CAFA002840F011
:2004A0005C8100251495139511980078A84200F3E0801498012840F08D80CA4DA878EA68F0
:2004C000162111FB00F081B2562024F0F5FD05F10C0640B9A8783268162111FB00F081B219
:2004E000562024F0EFFD607880211DF049F82F78B80018F0BDF8B8465FEA000B6AD02E7871
:20050000B8F1000F0CD005F11800594642784A70428810F8144B4A807F1E01F8044BF5D180
:20052000002E3DD037464FF000094FF0140AAEB305F1180412E0C0464C610020002808BF37
:200540004E4607D041680668216121F033F8207B401E2073304621F02DF82E7820690028CC
:20056000ECD1761EF6B216FB0AF2A0184188618041786170C188E1808188A18001890C30EF
:20058000218109C804F10C0181E80900105D2070A318C3F8109083F80C902E707F1EC6D178
:2005A0000CF078F8B8F1000F11D018355C4647466078618821F066F8FF2804D02678810070
:2005C00001EB00116E547F1E04F10404F0D1584620F0F0FF13981299087018B900208870AD
:2005E0000F9F0F70109890F81AA08689857A00F10E09084600780C468000804624F0F0FE6E
:20060000071C1ED0014600202278824222DC012A03D1A4780CB9DDF83C80002000900F993D
:2006200001910291039004953246CDF81480072306974946079050460CF0CAF9384624F0C4
:2006400012FE129820F0B6FF23F004FD21F04CFC002088E004EB800293780B70D3784B7029
:2006600013798B709288401CC0B21212CA70091DCAE71098119EB0F80C8090F81A9006EB28
:200680000516371DB61DB6F800B0414648465A4620F078FC824608AB48461EF095FABAF130
:2006A000FF0F4AD0002848D03B78002B52D19DF82600B17888423ED19DF82700C00838D385
:2006C000BD48B18800684FF6FF728A4201D1F688C6B1FB88162101FB0A06F3803889308180
:2006E000387923F0E2FD08B30E3600210422304619F05DFD387918F0A5F9F96802463746BB
:200700000E460FE0162101FB0A067089F080B089042206F10E0700213081384619F047FDE2
:20072000123604223846314623F008FE0F98149010E08C2002E08D2000E087201299139AE8
:2007400001EB820188703878C8707888561C8880F0B213906D1CEDB2A6E6129820F02AFFF4
:20076000102000E002200E9D2C4600F0F8BC6868002800F01C846868006820F09DFFEFE249
:20078000AF68002F00F0138400266E7058B1207F082808D13046014602F036FE002808BF05
:2007A000301C00F0BC810F98B9E16868002800F0FE83002069686870097851B984F8420004
:2007C000607F401E60770F98014621F0BDFB01F0E1B824F047FC0F98014605F027F801F07A
:2007E000D9B8C046406100206868002800F0DF83067847680021082208A819F0D8FCE7B1BA
:20080000CF4800210170AEB1761E0ED0761E0AD0761E03D0761E10D10F990170384608A9CC
:2008200015F0B2F90AE00F990170384608A91FF043F903E01DF0CCFE00E002202C46064611
:200840007BE06868002800F0B283686800F112011FF032F984E26868002800F0A8836A68C7
:2008600010785188928813F06FFD79E22C466068002800F09C8390F8009045888188B0F82C
:2008800006B0B0F808A00A301090CA4807790E91002F5ED0C6490F68002F57D08046786868
:2008A000007881454FD123F07DFC00284BD0037C002B48D04669002E45D000200C22834244
:2008C00044DD10FB02F1715A8D4239D10E2017F0CFFE071C3DD0002607F10A0004235B1E5B
:2008E00000F8016BFBD1BE80FF2038704FF6FF737B803E81FE8087F800900E9A7D80109977
:20090000BA8007F10A00A7F806B00422A7F808A023F014FD082017F0ABFED8F8141018B918
:20092000384620F047FE14E007604160C8F8140098F81000401C88F81000304600F00FBC57
:20094000401CC0B2BBE73F68002FA8D1022000F006BC0F9800F003BC6868002800F027831C
:200960000020687068681AF0D3FBA968088001F011B8A868002800F01A8300216970AD68B0
:20098000267860786F1C002E08BF29700ED040211FF0C4FA4FF47A710F2300F2E730B0FBA8
:2009A000F1F116FB03100F3828702678002F00F0F1873046B4E0C0464C610020AF68218F79
:2009C00094F83B2094F83A3094F83C60D4F834C094F83DE094F83F8094F8409094F841A095
:2009E00094F842B0002F00F0E28200276F70AF683981A968CA72A9688B72A9680E73A96821
:200A00008873A868C0F804C0A86880F80DE0206BA9680860A86880F80F80A86880F8109097
:200A2000A86880F811A0A86880F812B000F0B2BF6F68002F00F0BB82002068706868077D53
:200A400017B1C07C84F841006868877D17B1417D84F84210077C17B1C08920876868077B20
:200A600017B1806860636868877C1FB1407C84F83D00686807790FB10068206300F08ABFB7
:200A80000021697070B194F83B0080090AD208A8082219F08CFB24F0B5F808A81FF0DEF94E
:200AA00000F078BF24F0AEF84FF4FA7022F09CFF00F070BFA868002800F0798200206870C1
:200AC00024F024FB2BE0D548A9680078002900F06E820021697022E06868002800F067825C
:200AE000686800781DF040FF3AE16868002800F05E82002068706868007805F01FFA00F041
:200B000049BFA868002800F05282002068701EF0BDFB002808BF0F9800F04A820078AF6832
:200B2000387000F037BF6868002800F04082002068706968088889781DF0DCF800F02ABF69
:200B4000384E00206868002800F03182B44C6968082204F10C0023F0F1FB6868018961801E
:200B6000807A207021E26868002800F020820188ADF830104088ADF832000CA953201FF01A
:200B800009FF50200DF132011FF004FFE1200DA922F04CF968689DF834100079884200F0B0
:200BA00004828DF834000DA9E1201FF0F3FEFCE1DC540020406100206868002800F0F781F1
:200BC000007820F0A9FC4646686896F838104078884213D086F838000DF13501E12022F054
:200BE00025F968689DF835104078884206D08DF835000DF13501E1201FF0CCFE68680F9F8F
:200C0000407807FA00F0B06423F0ECF90024A6F89040384621F058FA2046C9E16F68002F96
:200C200000F0C5817C884646F486387886F846007B6886F83830B364398971877889A6F8C7
:200C40004400387B86F85800787B86F82500B87B86F823003A693265786996F8924070650D
:200C6000387EA04201D020F057FC696806F15900193124F039FB96F8460006F120040828D6
:200C800040F0938121207421224624F01BFA0020022120F01BFB88E16868002800F08781E7
:200CA00003E06868002800F08281122080E16868002800F07C810A300778002F0CBF002219
:200CC0000F9A47780FB142F0020287780FB142F00402C7780FB142F00802007908B142F020
:200CE000400269680888891C20F0F8F838E06868002800F05C8102206F688DF82800398868
:200D0000ADF82010FA78B97808A81CF041FD27E06868002800F04B8102218DF8281001883D
:200D20004FF6FF70884205D0821E8A4202D0C01E88420BD124F02AF9ADF820006868C27A96
:200D4000837A811C08A81EF02FFE687068680188ADF82010C27A837A811C08A81EF024FE52
:200D6000687000F017BE6C68002C00F0208102238DF828302188001DADF820102279B4F861
:200D80000680267AD4F80CB0277CD4F814A0618804680E92F2190F2000EB42005FFA80F954
:200DA000B9F14E0F00F39F8024F0F0F8884233D121700812607023F04DFDA41C014620460B
:200DC00024F092FA04460E98207084F801804FEA2823A370E670241D66B15846A41E0178D8
:200DE00004F8021F30F8021B761E4FEA21216170F5D1A41C27705FB1641E5046017804F8F7
:200E0000021F30F8021B7F1E4FEA21216170F5D1C44820224B4662E01846C9E02052002003
:200E2000784F00206A68002A00F0C18002218DF828101188ADF82010538894889679D2F880
:200E40000880177BD2F8109042684FF0060EF1190EEB41015FFA81FCBCF14E0F43DC824605
:200E60009DF828000F2818BF022808D1BDF820004FF6FF71814204BF891EADF820104FF6D3
:200E8000FF71994208BF8B1E02F8013B191202F8011B02F8014B201202F8010B02F8016B3C
:200EA00066B14046921E017802F8021F30F8021B761E4FEA21215170F5D1921C17705FB131
:200EC000521E4846017802F8021F30F8021B7F1E4FEA21215170F5D150467246634608A9F4
:200EE0001CF088F964E0102062E0686800285ED00220052214E06868002858D002206F6833
:200F00008DF828003988ADF820103A79798808A822F07AFD4CE06868002848D002200246FB
:200F20008DF8280068680188ADF82010418808A823F066F814E76868002838D06A68108887
:200F40009178D27820F084FB044665E6686800282DD06868017A427A1BF05EFE00E7686800
:200F600028B341788DF8201081788DF82110007823F054F8D8B10C3008A9022223F0DEF91E
:200F800013E0696899B1A86888B1087808A922F096FB6868A968007808709DF82000A9688F
:200FA00048709DF82100A9688870002000E002202C46D7E02C466368002B00F0D280187D30
:200FC00023F072F8002800F0CC809D691C331F78002F0CBF002002205F780FB140F0100031
:200FE0009F780FB140F00800DF780FB140F020001F790FB140F040005F790FB140F080006B
:2010000083466068007D23F0BFFE5FEA000800F0A8806168887A8DF829008889ADF82A0030
:20102000087802288DF828000CD001280AD00F2808D0032809D1891C08A8082223F07EF95D
:20104000616802E04888ADF820008F7B002F78D0780017F00DFB061C08BF102000F082803D
:2010600000216068877B8F4265DCC18A838CCDF83880826A13950C2F109190F8229011934E
:20108000BDF8208012924FDA40461CF057F80C2816D14FF6FE701CF051F80C2810D1DFF83E
:2010A00010C30F999CF82C3100200CF59A7C1CF8082B9342C4BF131C081C491C0C29F6DB30
:2010C000BC4D4FF6FE7305EBC00568686B8018B120F070FA0020686077B14FEA470A50466E
:2010E00017F0C6FA6860002808BF10201DD068683146524623F022F9A5F80280CE486F7034
:20110000129B0078139F28700E990093109A019708A8CDF808B0119BCDF80C9009F0A4FD10
:2011200003E0C046844D002002206070304620F041FA00F02FBC00694A00105A491CB052C3
:201140008FE7886A00900195CDF808B091F822000390CA8A8B8C08A8414609F085FD2546BE
:2011600026E702202546FBE56868002800F0D283007822F099FF071C00F0CC83387B1DF074
:20118000A7FB0028687040F0058440464568002D00F000842E46002116B9B74202D0F9E315
:2011A000B74209D1BD4219BF3868086039684160384624F048F8EDE331463668ECE76868E1
:2011C000002800F0A783007822F06EFF002840F0BD8023F067F9042800F3DD8200273046B3
:2011E0006F7022F053FF041C01D0207B68B11C2017F03EFA041C00F0CD8339461C2218F067
:20120000D6FFDDF83C90267100E0B9466868007820736868007A46462076B01C206114201A
:2012200017F026FA0028606141D03946142218F0BEFF6968626949689079897900F0F000DB
:2012400001F00F01014391716868406861698088888068684068616900780870686840684B
:20126000616940884880686840686169C079C871686840686169007B08736069C0794000E6
:2012800017F0F6F9616988606669B06818B13846F179814250DC307B400017F0E9F93061BA
:2012A00061690E691EB138460A7B82423ADC04F10C00804613F02EFD0646022E18BFB82E13
:2012C00006D1207B1DF004FB404613F023FD06463EB9B9F1010F20D120461FF06FFEC8B19E
:2012E0001BE0B9F1010F15D0606968B183681BB1184620F05FF9606903691BB1184620F086
:2013000059F9606920F056F940463946102218F04EFF02E0204623F096FF022E16D0B82EDB
:2013200014D037E36B685B6842001B690969D35A53526169401CB7E76A6852684100926884
:20134000B3688A5ACA526669401CA1E7D02007E56868002800F0DE82A868002800F0DA8217
:201360000021082218F023FF69680878498821F0BBF9071C19D00020A968687038880880B4
:20138000A968B8788870AC68A078002800F0028317F06EF96060AA685068002800F0FA82BF
:2013A0009278F91C22F0CAFFF4E2B120D8E4C046783D0020A43E00206868002800F0AA82DF
:2013C000A868002800F0A6820020594A69686870176809783FB13A79914204BF401CC0B24A
:2013E0003F68002FF7D1A9680870A8680078400017F03EF9A96848606868A96800784968FD
:2014000021F03CFDC6E26868002800F0838200206870686800781FF0DBFABBE20220696839
:201420006870002900F0B682087849881FF0EEFA002800F0AF8249E2F94D00206868002869
:2014400000F06882002730466F7022F01FFE041C10D11C2017F00CF9041C00F09B82394612
:201460001C2218F0A4FE267120461FF0A7FD002800F08E81686807785FB1407820B9E18854
:201480004FF6FE70084002E0E08840F00100E080686887785FB1C07820B9E1884FF6FD706B
:2014A000084002E0E08840F00200E080686807795FB1407920B9E1884FF6FB70084002E0D3
:2014C000E08840F00400E080686887795FB1C07920B9E1884FF6F770084002E0E08840F047
:2014E0000800E0806868077A5FB1407A20B9E1884FF6EF70084002E0E08840F01000E08051
:201500006868877A5FB1C07A20B9E1884FF6DF70084002E0E08840F02000E0806868077B46
:201520006FB1407B30B9E1884FF6BF70084004E09C550020E08840F04000E0806868877BC3
:2015400057B1C07B002807BFA06820F00100A06840F00100A0606868077C57B1407C0028C9
:2015600007BFA06820F00200A06840F00200A0606868877C57B1C07C002807BFA06820F034
:201580000400A06840F00400A0606868877D57B1C07D002807BFA06820F01000A06840F0A4
:2015A0001000A0606868077E57B1407E002807BFA06820F02000A06840F02000A0606868B2
:2015C000877E57B1C07E002807BFA06820F04000A06840F04000A060686890F822705FB108
:2015E00090F82300002807BFA06820F48060A06840F48060A060686890F826705FB190F8B4
:201600002700002807BFA06820F40050A06840F40050A060686890F828705FB190F829000C
:20162000002807BFA06820F48040A06840F48040A060686890F82A705FB190F82B00002807
:2016400007BFA06820F40040A06840F40040A060686890F834705FB190F83500002807BF35
:20166000A06820F48010A06840F48010A060686890F838705FB190F83900002807BFA0682B
:2016800020F48000A06840F48000A060686890F83C705FB190F83D00002807BFA06820F01B
:2016A0008070A06840F08070A060686890F83E705FB190F83F00002807BFA06820F00070BF
:2016C000A06840F00070A060686890F840705FB190F84100002807BFA06820F08060A06893
:2016E00040F08060A060686890F842705FB190F84300002807BFA06820F00060A06840F057
:201700000060A060686890F84470002F00F0428190F84500002807BFA06820F08050A068D0
:2017200040F08050A06035E16868002800F0F280696808A80822091D22F000FE032022F023
:2017400075FE6868C07B1FF069FF6868817B009102788389418808A813F00AF8FFF700BB82
:201760006868002800F0D680304622F08FFC041C14D11C2016F07CFF041C00F00B81002199
:201780001C2218F014FD267120461FF017FC28B920461FF00FFFD120FFF7E2BAE0887F49BC
:2017A00040F00800E08040F00400E080022023F041FC7B49032023F03DFC68680168089186
:2017C00000798DF824000F9F8DF825708DF8267008A81BF091F9FFF7C3BA6868002800F064
:2017E000998068680088002101F00EFED2E06868002800F08F80C220FFF7B2BA69486F68E5
:201800000478002F00F08680686800212A22697018F0CDFC46466968F08E08806868B6F85F
:201820004470847269688F81708F6968C8826868082206F1200707F139010E3022F07EFDEE
:2018400023F008F8014668680822801C22F076FD6868082207F11C01183022F06FFD68686E
:2018600096F8381080F823100F9869684E4C81F8220021784A0824BF6A6882F824008A086A
:2018800024BF6A6882F82500CA0824BF6A6882F826000A0924BF6A6882F82700C90924BFAF
:2018A000696881F8280075E06868002832D090F900403E4800680DF13601D0F830248DF8DA
:2018C0003640E0209047A86800B104700020FFF747BA6868F0B100200F9F687069680F7008
:2018E0006868022646706868867068680624C470696803230B714DE0686858B1407818B14C
:20190000FF2003211FF0E2FC23F04CFB0F9828490860FEE70220FFF723BA1220FFF720BAE1
:201920000020687016F046F934E00020687020F0F1FE2FE029461AF00DFB2AE029460FF057
:20194000E7FC26E0294614F0F3FC22E0294623F043FA1EE029461CF0B0FE1AE029461CF0DF
:201960009BFA16E0294619F0B1FC12E0294615F0B3FB0EE022F07EFDFFF7F2B929461BF00D
:20198000C3FC06E0294604F005FE02E0294604F029F90F900F9815B0BDE8F08F95FC010014
:2019A000114B0200F84B002082670020140100207C0520432DE9F04F924C04F12000036891
:2019C000ADF14C0D13B1002083F83900DFF83C820025A94613F13C0711D0DB6C8A4EB76170
:2019E0002BB940460068D0F84C058047B76978687060F86818B110363060854F3E6023F0E1
:201A00008DFC1190082013F00DFD19F049FB464610B165A023F006FE1BF08EFE0CA823F053
:201A20008BF904200CA98DF83000284623F08CF9606322F0D3FE04A823F0F6F8042004A96A
:201A40008DF81000284623F0F7F8E06222F0D0FE08A823F0F9F8042008A98DF820002846C3
:201A600023F0FAF82063E16A19B957A023F0DAFD206B10B959A023F0D5FD606B10B95CA01E
:201A800023F0D0FD3068D0F8E00380473068D0F8F0028047D8F800002F460726A030016898
:201AA0007B5823B118468047D8F80000A030761E07F10407F3D1D0F8B8028047EB2023F0F8
:201AC0006BFA206A78B16846FF21082218F06FFB206A6946082221F0D7FE04F120060128F7
:201AE00018BFD6F8009068464A4A12900CCA5FEA090180E80C0022D1082016F0B9FD5FEA10
:201B0000000900F09280A9F10206032723F022FB06F8020F7F1E4FEA20207070F6D13020A2
:201B2000F82706F8020F4946082204F13C0089F8077022F003FC48461FF03CFD04E004F1D5
:201B40003C00082222F0FAFB012008216A4623F0B3FA04F13C06002818BF092861D121F0B4
:201B600018FB800858D26846FF21082218F01FFB02AFFF210822384618F019FB0120294661
:201B800008223B4622F07EFF00284AD138466946082221F079FE00283ED130463946082293
:201BA00022F0CCFB3DE0C04652616E646F6D5F736565644175746F6D61746963282920664A
:201BC00061696C656400C04641455343434D206F70656E206661696C656400C0414553451F
:201BE0004342206F70656E206661696C656400C054524E47206F70656E206661696C6564B7
:201C000000C046C0201B0020204A00201401002098550020C073020001200821324623F0CD
:201C200051FAE22031461EF0B5FE21F0B2FA400834BF2F1C0127D44E5520012106F13E02C4
:201C400023F03AFAB14618B917B1284620F064F9CE4EE22006F1480121F0E8F838461CF0F9
:201C6000F1F868462946102218F0A1FA622010216A4623F021FA28B927B1622010216A46DC
:201C800023F020FA68462946102218F090FA384612F09AFC38461EF023FE384612F008FFEC
:201CA0001FB1284601211FF011FB1C2016F0E0FC0028A06300F0F880606AA16A221D1AF0DA
:201CC00011F8D8F80010D1F84C138847A16B201D0860606AA16A04F108021AF003F81CF08E
:201CE000AFFBA16B04F108004860606AA16A04F10C0219F0F7FFD14F7870CF4806F140015B
:201D0000BD7023F0F1FA96F82300A16B04F10C033870503604F110028B60606AA16ABE60C4
:201D200019F0E0FF04F1140AC64EC5497E60C64A0870C64B3A6204F11006A06BA16AC6602C
:201D4000606A7B62524619F0CDFFC14E3072022286F828204FF6FE70308422F07BFDBD48DE
:201D6000B54906F1180B0560584623F0BDFABA48FF21382218F01BFAB848BB4AC260B94BBA
:201D80008360B74941600570B94A4261B74B0361B949C161B94AFA60B64B8361B9497961FC
:201DA000B94ABA61B64B3B6106F1340012F0B2FF09270BF12C007F1E40F8045BFBD1307A88
:201DC00048F201011DF0D2F9307A4FF400411DF0CDF9307A21211DF0C9F9307A22211DF039
:201DE000C5F9A06BA16AC0F810A0606A04F1180219F078FF074689F80170A448C580C560B9
:201E00008570456105740126057048F20201067138461DF0ABF948F2010138461DF0A6F9C9
:201E200048F2040138461DF0A1F9A16B04F118004861606AA16A04F11C0219F053FF944B5A
:201E4000207094499870284623F0F4F89249304623F0F0F89149042023F0ECF89049062060
:201E600023F0E8F88F49072023F0E4F88E49082023F0E0F898784FF6FE71491C1DF076F9F2
:201E80008A488B4FC9F824008B4BBB60894979608A4AC9F82820A06B89F8426004F11C03F6
:201EA0008361874FC9F82C704FF6FF7029460EF053F9012040F6B83115F010FF08204FF4DF
:201EC000DC7115F00BFF1020642115F007FF202015F004FF4FF480504FF47A7115F0FEFE5C
:201EE000012001460EF038F9764A3520282123F0E9F87648744C0570D8F800102570744FCE
:201F00006570D1F800616561F089D1F850123D70103080B28847206128B9D8F80000D0F870
:201F20004C058047206900908DF804509DF8051005F0030221F003010A438DF805209DF852
:201F4000051065F383018DF805109DF8051065F307118DF80510D8F80010D1F80011C98936
:201F60006F461031ADF8061021693B680B607A684A60E061256215F05FF8D8F80400C1686B
:201F8000087878B904E0C04608500020E04D0020D8F80000D0F85824284601469047D8F871
:201FA0000400C1684B4805704B4F3D70087830B9D8F80000D0F858242846014690471198F3
:201FC00023F02CFB0FF062FC20F0BCFFD8F80000D0F8D40090F8430021F032FAD8F800005B
:201FE000D0F8582429460120904722F00FFD3B48D8F804700570F868007830B9D8F800004B
:20200000D0F8582428460146904714F0EBFB3448344A07212B4620F091FE16F09DFA1EF029
:202020009BFC102010A98DF840005A201EF0B2FC13B0BDE8F08FC046B85000208850002018
:202040008C540020350C0100816A0100694C0200F84B0020804F0020D43D0020085300209D
:2020600059810000A93A0200B5BD0100F9190200253202007D140200693702009D5201009C
:20208000013F0100013202008196000040610020D0540020614B0200254B0200394B020008
:2020A0004D4B0200FD4602001547020009E7010020520020DDFD0100E1DF01004D0602006F
:2020C00079F60100F44A00203C650020CB680020CD680020D0680020C4680020CC680020D1
:2020E00060520020A95302002DE9F04FB64CDFF8DCA2277F88465FEAD800ADF1140D80F0A0
:202100008F825FEA184024BF4FF6FF7BABF1010B80F05E81504600785FEA5831A0F1020001
:2021200080F03881BA4DA91D09885FEA182280F0F1805FEA980180F0D5805FEA183028BF95
:2021400088F4006080F036835FEAD81080F0A680A7685FEA983061D260695FEAD83138BF4E
:202160000020C0F02783A94928C96A4628C209881180276938B9384622F0F9FA6061C0B908
:2021800097B90B2011E0017BFF2906D031F07F000FD101F07C0104290BDBA06940B93846D8
:2021A00022F0E5FA606120B9002022F0FDFD32E060616378012019F081FB00EB40004FF4A6
:2021C00080410246184623F071F8217F6069082919D00188ADF80010017A8DF80810017BC7
:2021E000491CC9B231F07F07017306D10188427A684621F009FC606909E0008800210A4659
:202200001FF026FAF7E7017B41F040010173406922F0ADFAA06188F48040CBE2DFF8B8B2C2
:2022200000264FF0030AB14687B96078012E04D04FF400511BF0A4F905E04FF400514FF422
:202240007A7223F033F888F40050B3E27D68287810B3F02820DC51464A466B461CF0B4FC03
:20226000D0B1029803889BB984F83A908DF80DA08DF80C9003AB0A20494652461DF0FAFBCA
:20228000DBF8001084F83A9031B12878884703E001880126491E01803F68C5E71CF0F6FFF5
:2022A00007462078BFB1401EC0B22070A0B160784FF480411DF032FE30B9206922F057FA2A
:2022C00010B938781AF0D8FC6078402143F6982222F0ECFF207810B90B2022F065FD88F006
:2022E000400067E2B0F1FF3F18BF00280FD168460021082217F05BFF00201FF00DFE684655
:202300001DF0ACFD18B1607802211AF08DFE88F002004FE2084600211CF094FF2846067809
:20232000FF24C6B14FF6FF75001D00212B4610F8142F52080BD3C7884FB1BB4207D055B1EF
:202340000289BF1ABAB29542C4BF0C1C151C761E01F10101EBD1FF2C19D02D49A00000EBA1
:202360000410401818300189C088401A80B250B927484470FF2008F099FAFF2120460A469F
:202380001DF0BCFB00202249C88021F06DFB88F080000FE2B0F1FF3F18BF002811D1384606
:2023A000401E0AD0801E0CD1A07F022809D10120A07700201DF0D2FE03E0617F00201FF020
:2023C000C3FD88F48050F5E108500020E04D002060781AF0FBFD071C08BF88F4004000F0E6
:2023E000E9813E78D32E00F00381207FB04211D00A2E40F0118194F83B003871616A002978
:2024000000F00A81B81C884706E1C0464C6A0200406100209AF80000761E00F09380B61E3B
:2024200040F0FA80012818BF022840F0F580BE7876B3761E40F0F0807A7860781AB322F0E7
:20244000A5FD4FF6FE720021824218BF0121081C04D1B948C08E1146814209D01046B64EB2
:20246000ADF8100004A9A6F836B053201EF092FA1FF00CFA21F0C8FCAF49002081F84600A8
:2024800015F098FBC8E0022140F6B832A177A4E07878002852D122F009FE00221646A6495C
:2024A000206208310A60011C3FD08969761C0029F6B2FAD10546914634E0C04821F021F942
:2024C00001280BD0BAF82E004FF6FF7181420BD02988884208D01BE024520020B74805F1EC
:2024E0000C0121F035FE98B193482989408F884201D1834501D12B7953B18F48697990F8C7
:202500003200884209D19AF80D00A979884204D028461FF0D1F8761EF6B2AD6909F10100F3
:202520005FFA80F94E45C8DC206AE26A002AA7D031469047E06A00286ED1A1E700201EF066
:2025400083FA69E0012818BF022865D17E7894F841003EB194F84010491CC9B2884284F8A1
:20256000401042DB607F401E04D0401E3AD0401E1ED051E022F080FB98B994F8420020B17B
:20258000A06A002848D0804746E0002102200E468DF808000246ADF80060684621F030FDA7
:2025A00013E0012022F05EFD014603F03FF933E0AB2000216A461DF0F1FBCDF808D00420BF
:2025C0008DF80C0002A811F0D3FA60784FF480511AF0D6FF607841F288324FF4805122F03C
:2025E00065FE19E01FF082F816E001200021DCE7F88948F20101401A0BD0401E05D0801E38
:202600000AD1384616F094FE06E0384616F04EFE02E0384615F038FE384621F045F9D7E6EE
:2026200060784FB17F1E00F0BF80FF1E00F0B580BF1E00F0A980BBE094F83B00810980F062
:20264000B78081087AD2C10872D20009C0F0B0800620207722F000FD002865D01CF016FE2F
:20266000E568071C60D068684078800837D33878032100226B461CF0A7FA28B968684078E3
:20268000410830D20E201BE002980188B52912DAB421018060784FF47A724FF4005122F0D6
:2026A00005FE4748416829B10078FF2814BF3878FF208847E56868684078400803D20920DA
:2026C00022F072FB0AE0092003228DF80C0003AB00218DF80D200A201DF0CCF9E568686818
:2026E0004078410864D337490E6816B980081BD35EE038781AF0C0FA002600B1012603258F
:20270000301C02D00E2022F04FFB0C2020706078402143F6982222F0C9FD0A208DF80D5045
:2027200003AB8DF80C002AE00E2022F03DFB3FE005200021207734E0FC480020042294F8B2
:202740003C002277400833D394F83E702FBB50460078012818BF02282AD1012604F11C00C7
:202760000021E67017F023FD0325257730461BF09FFD0A208DF801606B468DF80060002113
:202780002A461DF077F913E0002184F83A1021773222042122F08AFD0AE021F04DFC042060
:2027A000012103F043F803E0012001461FF0CCFB88F0040005B0BDE8F08FC046104C0020D1
:2027C000205200200C5300202DE9F04FDFF8ECA2B94C01214FF0E047ADF12C0DDAF80400F4
:2027E0002569C06808931F400170B54807924FF0000101704FF0020000EA020008BF002855
:2028000040F0C082DFF82893DFF8288311464FF480301E4600270840374008BF002832D1AC
:2028200000204FF4003110EA060701EA020108BF00290ED137464FF48001384001EA020199
:2028400008BF002900F08F820020287119F01AFB89E22871EB201EF0B1FF4B4600204146AB
:2028600018700878862801D11EF0F6FF22F056FDE1690A68002313710968E16122F0CEFE74
:2028800021F058FC6FE20020DAF80070287107F1B8000168DFF8F0B20F784FB95A46177837
:2028A00037B1D0F8940480472569DAF80000B83081215A462778B54E1170806CA770002237
:2028C000A281FF213170C089297A4B461646891E1E708DB2A842C0F23A82E169083109687B
:2028E00004F1180001600426A681DAF80020607EA17EE37E04F11906B83200EB01206081DE
:20290000717823711368ED1EC1F30119ADB219780696002908BFB9F1020F00F01882B9F17B
:20292000020F00F3148261B110F0070F00F00F8241460978862904D100F00701022940F075
:202940000682011301F00201022967DA667800F0070002285BD1002E59D1D06990F88300B4
:20296000022851D0E1690C31097805A801700527A78122F0D3FC454606462878862840D17B
:20298000DAF80000403001680F6837B9D0F80C058047DAF80000006C07689DF9140022F01C
:2029A00001FD7877DAF80000016C096800228A77006C9DF914100068C177304622F02EFEDD
:2029C0002679678922F0AAFC41460A7807F01007862A15D1C24D05F11E031A88521C1A8033
:2029E00087220A7022F01AFEE879B04206D11FB9002018F0C5FB07E01B20FAE7E920F8E7B5
:202A00000646304622F00AFE21F094FBA1E141460878862803D11EF01FFFA77866788FB1C6
:202A200086B9012F00F093816089022F03D110F0070F40F08C81032F05D100F007010329B6
:202A400001D084E16089010980F08181011301F00201022902DA810A80F079810699497877
:202A6000C1F38108B8F1010F4FEAA111099100F06E81012900F06B81C14AB9F1020F0BD055
:202A8000535C12F80870002907EB0301CFB21ED0C1091CD3BF1E0DE0891808EB02070979D5
:202AA0003A795218C109D7B20CD2099958EA01060DD0BF1CFFB20AE03C6500201401002094
:202AC00014550020099958EA010608BF0227C0F30020391A60718D42C0F23981DAF800107E
:202AE000ED1B2D18A8B2D1F850122081743080B2884766780028606100F0298100217422A6
:202B000017F055FB0020E07062891EB9084902F0200008700648617906784FF0000C002E32
:202B200039D0002937D102F0070003280DD003E0CD680020D068002001282CD1DAF80000D2
:202B4000D0F8D40090F882602EB3DAF80400406906781EB121F074FEFE2819D0DAF800005E
:202B6000D0F84C02804750B9DAF80000D0F84402804720B96289617994F803C00BE00420CC
:202B8000E0706289617905E0CB680020915500200420E07084466569268905F1740305F1C4
:202BA0007400AB65069B686093F801B02E8120890029CBF301191E46A5F85C003078AA8163
:202BC00000F0780049EA00004CEA000028744FF0FF03AB730CBF2079002085F83A8085F8F1
:202BE0004900099885F83000A089002FA0EB010086B2A68100F0A880E169E78068463A4604
:202C00008919083114F02AFDBF19B8B2A0812846027C4FEAAB0111F0030F01F003076D46B9
:202C200002F040083ED0B9F1020F4FF0000301D1D1090BD29DF801209DF8001001EB02215C
:202C4000A0F844100DF10205A0F84210734EB0F84410728F8A4203D04FF6FF728A421FD1CA
:202C6000032F10D06A78297801EB022189B24186328FAD1C01208A4211D04FF6FF728A42D4
:202C800018BF181C0BE060692946323022F02CFB60692F363146323021F05AFA0835034679
:202CA000002B48D006984078861120D06069B9F1020F03D0017CC90903D309E058EA07073F
:202CC00006D16A782978AD1C01EB0221A0F84210032E07D069782A7802EB0122028506E0D0
:202CE000C052002060692946283022F0FDFA608900F00700032809D0012825D1DAF8001024
:202D0000D431086890F88200F0B102E050460168D431D1F8741160698847A8B90020069FA1
:202D2000E070B97866697878C1F3011100F078000843307408E0DAF80000D0F8FC14384824
:202D4000884719F09FF804E00CF0B2FB01E021F02DFC22F0E3FAE1690A6800231371096899
:202D6000E16122F05BFC079A089F202100201140384008BF002927D021F0B2F924E0C04689
:202D8000D4770200274991F90000002803DD91F90000401E0870244991F90000002803DD85
:202DA00091F90000401E0870114600201E464FF080770840374008BF002801D021F096FB81
:202DC0000020287119F05EF8174A92F9000098B1079B089F02214FF0E0401940384008BF43
:202DE000002912D092F9000000280EDCDAF80000D0F84C05804708E0DAF800700B480021DB
:202E0000D7F85824017008469047DAF80400C06800210BB00170BDE8F08FC046204A0020D2
:202E2000C85300201655002015550020125500202DE9F04FC84CC94DDFF824930E46300C1E
:202E4000ADF1140D80F08E81DFF83083DFF830A3700880F02E812078B10B80F00181C54816
:202E60000768700980F0DD80300928BF86F0080080F0BA82700A80F09680F00880F08980E2
:202E8000300A63D2B00A5CD2BB4C300B2BD2F00A27D3142015F0ECFB071C1FD00025A84663
:202EA000207A012813D1009704202946424614231DF014FA58B920683860606829461422C9
:202EC0003B46786004201EF0FBFC84F808806D1C0C34032DE4DB38461EF06CFB86F4806067
:202EE00082E2002080E2182015F0C2FB071C25D000252434A846207A012813D1009706200B
:202F00002946424618231DF0E9F958B9206838616068294618223B46786106201EF0D0FC93
:202F200084F808806D1C0C34032DE4DB38464146182217F03CF938461EF03CFB86F40060BD
:202F400052E216F0EDF886F400704DE219F0C0FA2178207A052902D021F006FF0FE0042119
:202F60001AF00EFB207A042119F0EAF9062021F05DFA21F0F9FE16F0D3F81CF0AFF8012058
:202F80001EF0CAFF0320012102F050FC86F080002AE2FF2003211EF099F922F003F8C349D9
:202FA00001200860FEE7424692F84600082818BF042814D120322120742122F083F8C24D6F
:202FC000C24B69682A88D8690024A9469846A24208DC00B18047002002211EF077F986F4B4
:202FE000807001E2A30003EBC403CF5C37F07F0C14D017F07F07CF540B4405D101A8FF2147
:203000000C2217F0D4F801AB012021460C221EF057FCD9F80410D8F81C002A88641CA4B293
:20302000D5E74FB17968087818B14868007817F0C9FD3F68002FF5D121F0A8FF208421F0AC
:2030400009FC4F46FF1D3878012806D1444620784FF40061642222F029F986F01000C3E160
:203060000C280FD00C2021F0E1F92078012803D0022818BF0C2801D1002060714F4607F10D
:2030800034010DE0022021F0D1F92078012818BF022804D101206071002020F095FC514630
:2030A0000A68207A4FF4005122F000F986F400509AE1012021F0BAF92878677800F00701C4
:2030C0001220012918BF02293CD14FB3032F27D0012F37D101290CD00A2021F0A7F95146AA
:2030E000207A0A684FF4005122F0E0F815F07AFA28E00A2021F09AF9444620784FF48061B1
:203100001AF03EFA502004A91FF090FEBDF81000A4F84400BDF81000002117F035F918E0FB
:2031200021F0AAFD30B1032F04D022F013F810F007FE07E0022021F079F9AD492069097842
:203140001AF0C6F928B1207A01214FF47A7222F0ADF886F0010047E1F84B00208067002022
:20316000E04D00204F46DFF890B2DFF888924FF0000A30E1DC540020484E0020FC4800209F
:20318000184E0020054623782A783878511E00F00081491E3BD0183900F01781B93900F064
:2031A00010812A3900F01481121F27D0921E0DD0921E40F00D81012818BF022840F0088190
:2031C000287913F049FE21F0CFFD01E1012840F0FF806B88002B40F0FB80281D01A91AF0AB
:2031E000AFFE012840F0F48021F0D0FEADF80C002D1D029501A814F095F9E9E0012818BFE0
:20320000022840F0E580404607F062F9E0E0012818BF022840F0DC8099F81C004D46072832
:2032200018BF082805D1627A1AB9012102F0FEFA2378032B00F084800A2B11D0042B15D00F
:203240000E2B13D00F2B11D00D2B0FD0002B00F0BF801BF043FF207A102119F0E5FEB7E02B
:203260006848007800F00700012869D0637A607873BB5046207353462B711CF073FBB8B1A9
:20328000062021F0D3F8207A4FF400511AF078F99BF80000000906D3BD7B25B94FF4004075
:2032A00001210CF059FF1BF019FF91E07C052043082001210CF050FF052021F0B7F842F272
:2032C000107020F091FB83E0E054002008530020217B01280AD003281FD10320484B607060
:2032E000981C80F800A00125A57116E0491CC8B20428207304DB4148007801280BD00CE062
:203300003F4800884FF6FF71814204D0032060700423E372E7E784F801A01EF0B7FA20F029
:2033200073FD9BF80000000902D3B87B01284FD1607803284CD1082001210CF00DFF47E097
:20334000637A23BB207A102119F06EFE1CF00AFB90B1207803280BD11BF0C0FE287F0228E7
:2033600006D101201EF0D8FD0220012102F05EFA062021F05BF82BE0082001210CF0ECFE1F
:20338000052021F053F801201CF0E8FE20E05046FAE7022B1CD1012818BF022818D121F0E4
:2033A0005BFE40B921F082FE00280CBF504601201DF04AFB0CE013F0BFF848B118F070F91E
:2033C00006E0404613F0B6FA02E040460EF0BCF8404620F069FA207A19F0F8FD5FEA0008D2
:2033E0007FF4D0AE86F4004005B0BDE8F08FC0464550002008500020826700208850002015
:203400004049002080670020964B2DE9F04FADF13C0D0A91002209900221181D0170502749
:20342000DA7281465F72402159711046D873802199710021D9719889197240F4305098814D
:20344000A0219972997310461874012018F036FA28B9186820F00F0040F0020004E0186843
:2034600020F00F0040F00100DFF80483BF4C6FF30F1048F220210026014398F800501960D4
:2034800098790C9684F82E005DB930461AF0DAFC94F82E00000910D3304608A98DF82000F1
:2034A00008E094F82E00000907D301200DF121018DF8210052201DF06DFA20F0C3FFDFF811
:2034C000E0A2DFF8E0B200280B9040F0B8800FF035FC00280B9040F0A7800C9804F12006CD
:2034E00074210D903246212021F0E6FD002855D10D9921207422334621F0C4FA00284DD194
:20350000E08E4FF6FE71814248D001200D9094F84600082806D0042804D00FF0E5FF0C9891
:203520000D903BE00D9D42200DF122018DF822501DF030FA06F12F0143201DF02BFA06F1C5
:203540002C0147201DF026FA06F11C014A201DF021FA06F11A014B201DF01CFA06F1240148
:2035600038461DF017FA06F1160153201DF012FA06F12D0154201DF00DFA06F11801E12057
:203580001DF008FA94F82E00000938BF0C9D52200DF122018DF822501DF0FCF90C9D14E090
:2035A000DAF804000C9AAF0007EBC50729460C233F18009701201CF091FE20B93878FF282A
:2035C00004BF002038706D1CADB20BF10400BAF800100068A942E3DC00B180471BF09EF98A
:2035E0000D98B8B121F0D2FCA8F8200028B999F8000000F0F80089F800000320393600278A
:2036000088F80100314684F8467008F1180021F06BFE01E009200B900B9F7B480021002F93
:20362000418008BF0B9102D0012777480B9794F83810824601208840C8F8100082E00FF055
:203640007DFB0FF051FF04F120022120742121F039FD02A8FF210C2216F0A9FD35465646B4
:203660000AE0C0467C670020294601200C2202AB1EF026F96D1CADB23088A842F4DC5846C7
:20368000006800B180470020ADF808004FF4A17014F0EEFF071C12D0FF214FF4A17216F0B7
:2036A00086FD384602A9022220F048FE42204FF4A1713A4621F006FD38461DF07BFF002074
:2036C0000C99ADF81000062202A816F070FD142014F0CEFF061C1BD0AC480C300768A7B142
:2036E00003270225A8B202A90622801920F026FEAD1D7F1EF6D104A93046022220F01EFEDE
:203700004C201421324621F0DDFC30461DF052FF182014F0ADFF071C10D00C9D1822294695
:2037200016F045FD0620294618223B461EF0C8F86D1C032DF6DB38461DF03CFF1BF03AFD91
:20374000314882460B98914D01286BD1904E337804F1200743B3012B0CD0022B12D199F8FE
:20376000000000F0F80040F0020009E0FC480020F84B002099F8000000F0F80040F00100D5
:2037800089F8000083481FF0BCFF002808BF002003D0042188F80B10032088F801000CE0E1
:2037A000E05400201C530020022099F8003088F8010003F0F80089F8000021F0CBFC0999DC
:2037C000F36B00F07F000818C8F810306430022180B20C90FF201DF079FD4FF6FE70E086BC
:2037E000431C60870020A4F844301DF095FE307801280ED10A98012808D002A8002108226B
:2038000016F0D5FC02A802E01C54002000201CF085FC212074213A4621F054FC002002210E
:203820001DF054FDE8680B9C80B9122014F020FF0646002EEE606DD04FF6FE70B61F0327EE
:20384000411C26F8060F7F1E7180FAD1002C61D106AB4C200021022221F014F9002852D156
:20386000BDF8180000284ED004284CDA182014F0FFFE03274FF0020900244FF6FE7B064608
:20388000EB681FFA89F14C2006221B1921F0FAF878BBE868015B8B452BD056B300962018F6
:2038A00041880022182306201CF018FD3069EA6800F2E93333611019418805F13402880068
:2038C00000EBC100E9681350081973694188880000EBC1008018E9684360081941881822DE
:2038E000334606201DF0ECFF30460021182216F05EFC7F1E04F1060409F10609C0D116B103
:2039000030461DF057FE224B712000210822503321F0B8F82048CAF80C002048CAF81000D2
:203920001FF058F91F481E490860D8F8140050B108F11404076820681DF03CFE3846002817
:20394000C8F81400F6D109984FF6FF71814217D00020012488F80A0008F10A0288F8004038
:203960002146852021F0A8FB08F10A0528B98520002122462B4621F085F80C9820F024F8A1
:203980001FF074FC0B980FB0BDE8F08F384E0020E04D0020B8500020ADE10000194D020011
:2039A000B0520020873C02002DE9F04F04462089ADF1440D002807BF302000211020012138
:2039C0000CF0CAFB4FF0000B52200FA98DF83CB01CF0E0FF6068217A01AA0EF09DFB00288A
:2039E00000F068829DF806000228B4BF01275F469DF808000228A8BF5F46BDF80E004FF60D
:203A0000F87880450BD008F10101814207D008F10201814203D008F10301814200D15F4639
:203A200021F0AEFA9DF80710884240F04382002F00F040829DF83500002840F03B82208DF5
:203A40009DF80A60678EADF83000ADF8127056B161689DF805209DF82030012020F0B6FC24
:203A6000002840F027829DF809709DF80A50DFF87092002F4CD19DF821005E4658BBBDF801
:203A80000E0003461CF0CAF93746022808BF0127002F9DF8067018BF012649460988994237
:203AA00008BF46F0020626B1002F14BF402120210E4318461CF0B2F9012808BF46F00106F3
:203AC000002F3DD00B9A107821F05DF8012818BF26F0010635E09DF8250088B1FF280FD0EC
:203AE0009DF824700C2F2BDA57B30A99891E21F04DFA31F8022F904222D07F1EF7D11FE02F
:203B00004946BDF80E700888B84208BF222617E0BDF80E10FF201EF0E7FD002808BF082652
:203B200008D09DF8090047F001072C2640F001008DF8090007F00307012F08BF46F011067A
:203B40000B9A8DB9C648007870B106F0220022280AD006F04200422840F0AC8110780628E2
:203B600018BF072840F0A681F0094FEAA61A48D317783846C01E012825D9001F23D0C01ED9
:203B800021D0801E1FD04946BDF80E600888B04240F090810520BDF810408DF839000EA894
:203BA0001FF042FE002800F085810269032313261370511C0E704C7022128A70CF70448073
:203BC0000AF042FA76E15FEA5A001AD3032F02D150780D2815D09DF80C0038B1BDF8100092
:203BE00007990FF0F9FC012800F060819DF80B0038B1BDF80E0006990FF0EEFC012800F04A
:203C00005281B4F8447049460E310888B84209D1CDF800B0208DB4F8421094F846205B468C
:203C20000FF0CAFD9DF80A00A44DDFF8949200286FD0208DB4F8421021F0C6F8071C51D10B
:203C40009DF8350000283BD195F88C00012860D10B980078062802D15FEA5A0059D2BDF854
:203C6000121008F10700884200F02481BDF80E004F46FF1D397811B1E98E81421DD0594616
:203C800016F0D0FD80B18079BDF81020BDF80E1010F0180F0CD0608E00901046238D9DF853
:203CA00021201AF0BCFC05E1BDF80E10BDF8102010465A4617F0BCF9FCE01BF0EDFDF9E007
:203CC00004201FF0DAFC011C00F0F4806420087001274F70208D488028781AF061FDE9E031
:203CE000324900209DF805106068FB780A18527B9A4203D0FA705846786060684018042181
:203D0000401C1FF0DEFF7968814200F2D380401C786095F84600042818BF092840F0CA80BD
:203D20009DF81610B00980F09D800B995FEA5A00C0F0C0800878042804D19DF820000228EB
:203D400000F089800A78072A04D19DF820302878042B4FD0032A48D00C2A40F0AB80487879
:203D60008E78002838D14F4607F11C0251200121167021F0A7F94FF00108524897F82030D6
:203D800080F80080002B0CBF4FF47A744EF660244D4850F823004443287803220221B4FB1E
:203DA000F2F41CF0BBF8002840F08480700808D2387F02287ED128780221224621F073FAD7
:203DC00078E04FF48040214613F088FF4FF4804041460CF0C1F96DE0698F01201EF0FEFFE6
:203DE0002878012119F0CCFB64E001A859461CF055F85FE04FF4806119F0C2FB4F465E46EA
:203E0000092085F846001C373E7020F023FD0146069820F09DF901284CD110201FF02DFC4C
:203E2000074607990B98002F00F1010042D002223A704378027802EB03227A8080787870D0
:203E40004A201CF0A7FD9DF80A0010B91F4905200870394640E7584601A909F0A7FC29E048
:203E60002749002094F8460094F847708DF8380094F948608DF8397001298DF83A600CD157
:203E8000208DBDF81010884207D1BDF80E001BF0C5FF022808BF8DF816B0E26B01A80EA983
:203EA00001F0D4FA06E0BDF80E0001E0BDF810001BF00CFB11B0BDE8F08FC046FC48002093
:203EC000E04D0020A84A002020700200F84B00202DE9F04FCA4C05462078ADF15C0D03280E
:203EE00040F045824FF0000B6846182284F800B0082384F801B0594621F0F0F86846594630
:203F00001EF0EAF920612E22594604F1300016F04EF904F130008146FF210A220C3016F054
:203F200046F91EF01BFB294658461AF0DBFF04F11801E06021F004F9206AE169B1FBF0F26F
:203F4000D7B284F83070022FC4BF022784F83070E770B0F5005F04D1E068B1EB473F00D356
:203F600010B90120207004E2FF2184F83310D846CDF828805E460B960C960D960E960F96A4
:203F800013960A46109211921292149215924FF40055E58659461691B74200F30B81139E80
:203FA000002E3AD10F9E002E28D1B8F1020F25DA0E98022822DA0B9802281FDA0A9887423E
:203FC0001FD00E9E9EB9B8F1000F0ED10D9E0C9806430FD15D46AF4213DD284611F0E6FA0D
:203FE0006D1CEDB2E7786070F5E7012016E0B8F1000F01D1032011E002200FE05D46AF4234
:2040000001DC58460AE0284611F0D0FA6178E7786D1CEDB201436170F1E705200028A07058
:2040200000F0B180401E70D0401E00F09280401E1DD0801E40F09C811498FF2804BF1598E8
:20404000149084F8330094F833200C2684F83120D019401E90FBF7F17943401A84F83200B1
:2040600012FB0690808BE0860BF024F887E0002F08BF5D460BD009F10C0138465D4611F809
:204080000C2FFE2A03D0401E05F10105F7D1AF423ADD0C2084F83C5015FB0090817E84F871
:2040A0003D10C07E84F83E000FF076FCE2782D1895FBF2F050432D1AE8B284F83200401CBB
:2040C00090FBF2F15143401A84F831007C201CF095FEFF2810D17E201CF090FEFF280BD159
:2040E000FF201CF08BFEFF2806D178201CF086FEFF2808BF94F8310084F833000C2110FB54
:204100000190808BE0864FE0FEE71098129E84F83200FF2E00F1010090FBF7F101FB07F1FD
:20412000A0EB0100C1B284F8311008D11198FF2804D10C20129111FB009005E012901299A8
:20414000880000EBC100484484F83310808BE0860EE1DDF8408008F1010084F8328090FB38
:20416000F7F17943401A84F831005FFA88F011F01DFA6070FE215FFA88F01EF0ADF9584699
:2041800003F0CCFAF4E084F831B0781E594684F832000C2684F833B011FB0690808B7E2175
:2041A000E08658461EF098F994F83200FE211EF093F9DDE00C2116FB019706AA0423710307
:2041C00020F0C3FF069807F11605010EB1F1960A18D1C0F38541C0F3014040EA81000228E0
:2041E00010D187F819B09DF818002870FF223A769DF81930FB75304617F00CFDB88373E01E
:20420000244D00203046594607AA1FF01DFB3046012108AA1FF018FB3046022109AA1FF059
:2042200013FBDDF818C00CF0FF010CF0FF00FF2909D0FE2907D07E2905D07C2903D0782938
:2042400018BF702909D15FEA0B0706D1CCF38541032908BFBAF1000F1ED0304611F0A6F9AC
:204260000746002FE06867703FD1710306AA042320F06BFF3046594607AA1FF0E5FA3046A4
:20428000012108AA1FF0E0FA3046022109AA1FF0DBFA069800F0FF0028709DF81900069FB9
:2042A0006870C7F30140E8709DF81E30AB702978FF290BD0BDF81C00FE2907D04FF6FF71AD
:2042C000814204D1304617F0A5FC00E01020E8809DF822002871BDF820702F819DF8263080
:2042E0006B71BDF824206A81E0682978FF2936D0FE292ED07E2926D07C291ED0782917D00A
:20430000702910D0A52908D0242904D00F99491CC9B20F9127E0159600E014961399491CE8
:20432000C9B213911FE00E99491CC9B20E911AE00D99491CC9B20D9115E00C991296491C74
:20434000C9B20C910FE00B991196491CC9B20B9109E008F1010710965FFA87F803E00A99A1
:20436000491CC9B20A91E778761CF6B214E66070607817B0BDE8F08F2DE9FC47D34C0F46CF
:204380000546F80B80F0FC816078DFF84483B90F80F0A081B90880F09081F90A80F0FA80E4
:2043A000390B80F0C580380907D2F80FC0F01E8227F0804718F028F818E220F0AFFF81460E
:2043C0001FF0C2FA002800F0AD80082020F026FE002840F0A780802020F020FE002840F0CC
:2043E000A180684613F002F8012803D10098002800F0988000250126E8B220F08FFA48B1B4
:20440000837A3BB1867290F9090006FA00F0C0B21CF048FD6D1C032DEED30320207604F14E
:20442000D40020F075FF484621F0F8F8D14800252A460168056050F8081CCF4940F8085CF9
:2044400004F13C001FF0D0F940460068006B8047A168401A010B206AC1F1FF3282422CBFA8
:2044600008444FF0FF30206294F8240020B12069216AB1EBC02F25D91FF076FA294600B143
:204480003146081C1BD0BD4840F6090101804580417B06F00F0221F00F010A434273017BA9
:2044A00005F00F0321F00F0143EA010202732946416020F021FC418811F4406FFBD084F82E
:2044C000246025621AF0A2FCCC482946056002201EF014FF02201DF017FC112010F016FE77
:2044E000207818B96068483020F02CFFC448007810B90E2010F00AFE94F8250020B184F857
:20450000255005201DF000FCBE48E0612576B4F9AC00B4F9AE10884214BF0220072014F068
:2045200039FD02E0484621F079F827F0080741E720B104201DF0E8FB0020607065681CF057
:2045400095FC38B12846ED696FF4807100224FF00073A847E06858B140460068006B804795
:20456000E2686168801AC860000BC8600026E660A54904F13C0000221FF036F90221D4F859
:204580009800217618B104F5907020F0E3FE27F400670FE720F0C2FE06461FF0D5F9D4F8FC
:2045A00090100028894600F0828000297FD09749042504F13C00002225761FF015F9304670
:2045C00021F02CF804F1D40020F0A2FE40460068006B8047E0604FF0010884F8018028461A
:2045E0001DF0AAFBD9F810006060D9F81000416AC90803D3036A294600229847404618F0CA
:20460000ABFA606880F8158060680AF0FDFD6568D5F808A040F60A02D01F564600F1010C57
:2046200000E01E46736833B119888A4203D0884218BF8C45F5D100217160727B08F00F0316
:2046400022F00F0213437373D9F80C201288904224D06046904221D02B8E03B3696305F104
:204660003002518095F83C0001F00F0320F00F00034385F83C3095F83D0008F00F0320F039
:204680000F00034385F83D307260707B01F00F0520F00F0045EA0001717300E0E16050462F
:2046A00020F02AFB514640461EF028FE02E0304620F0B4FF27F4806798E00CF099FDD4F881
:2046C000980008B927F0020790E0C046C85500208C0100104E4A116841F08001116020B10C
:2046E00004201DF011FB0020607020F017FE8246D8F85400016804208847D0B1287DC0B189
:20470000A068B0B18146D8F800002E69006B8047A0EB09002861000B2861B04202D28019C0
:204720004008286140F6C41181422CBFB0F5967F2961504620F072FF1CF098FB80B1EE696D
:2047400028466FF4807100224FF00073B047D4F89000002808BF47F0020701D017F054FE17
:204760002846AD6900214FF080630A46A84727F000573BE014100440E1D601009067002073
:2047800020F0CCFDD4F8A86066B306F1280106C90A234FF0E0450B40154008BF002B21D14F
:2047A00006F1280191E8000306F1280595E8060006F1280322EA090221EA080183E80600F8
:2047C00020F02CFFB16879B1B9F1000F08BFB8F1000F09D03069B6F93010B5684B4642468C
:2047E000A84701E020F01AFF27F4804727B104F59070394620F0AEFDBDE8FC870000046047
:2048000076770200C93601004D29010029390200CC210840CA492DE9F04F1222ADF11C0D36
:2048200002A812F01BFF0824C64FC94E87F8204006F10800B86214F0BFF8C34D287830B90E
:20484000C24A002014211CF025FD012028700C2020F0C6FD6B68BA4690B1002101600AF180
:204860004C070471002B876008BF686008D01F4602E0114619E00F4639680029FBD13860DD
:2048800020F012FB182020F0ABFDDF4A116980B10023036004710C278360DC4D0774176902
:2048A0004561002F08BF106103D00A68002AE0D10860D848D649086019F09AFA1EF066FAB1
:2048C00000250A278DF808404FF0030BADF80C5040F20240ADF80A000AF10401ADF810701F
:2048E0000422ADF80EB00DF112001FF027FD9AF80000BA2102AA234617F0E4FEC6480078FB
:20490000012814BF0228AAF80270C44C0AF10201E162B61CE6639AF80000A070DAF8087005
:20492000A763C0492164BE4860620CF03FFB0122BD49A06204F188001AF064FBBB490122A9
:2049400004F1AC001AF05EFBA06A81461FF0C6FC002840F0A680DFF8D882D8F8000000280A
:2049600000F09F80B34EF06A4FF0FF3120F052FE4FF0FF30AE462B4606F1D0010A46576854
:2049800037B9176827B9B0F1FF3F08BF181C01E00EF1010E5B1C0832042BF0DBF26AB0F157
:2049A000FF3F7BD0C2005018BEF1000FC0F804904046885067DD326A9F49DFF88092BEF17C
:2049C000010F0FF2901825D10D618A6113680B600D75D16097684D75BB0003EBC7039B184F
:2049E0001D72376ABB689A0002EBC302D2195572336A9F68F161BA0002EBC7024746D21889
:204A000057609F683162BA0002EBC7024F46D218D7600A468C46C0F80CC087684FEA8E01C2
:204A2000BB0001EBCE0103EBC7031B181D7261440D6187688861BB000D7503EBC7031B1873
:204A40005D7287684D75BB0003EBC7031B1847465F60876881F82150BB0003EBC7031B1865
:204A60004F46DF60012740A381F82070744FCB61BEF1010F4F62614603D08868401C886041
:204A800004E05846FBE730624246F0619068401E706228460AF00EF9F06A00E0104620F010
:204AA000B5FDA06A04F10C0234A10EF035FB0EF027FCA06A04F1100235A10EF02DFBA06AFC
:204AC00004F1140237A10EF027FB0EF0DBFFA06A04F1180238A10EF01FFBA06A04F11C02D4
:204AE0003AA10EF019FBA06A04F120023CA10EF013FB01200190A06A01A91EF0BBF828462A
:204B000006F05CFC284612F093FEA06A00956946CAF818001EF0AEF8DAF818000AF11C0267
:204B200034A10EF0F9FA16F0A1FF9AF800008DF81A500DF11A0120F053FB07B0BDE8F08F36
:204B40008C6C020090490020C854002001BA0100885300203C2020202020204241434B2042
:204B600020202020203E00C03C20202020202048454C502020202020203E00C0446576692C
:204B8000636520496E666F1B37311B381B5B6B002020204E574B20496E666F1B37311B3818
:204BA0001B5B6B002020204E574B20496E666F1B37321B381B5B6B002020205A444F2049AA
:204BC0006E666F1B37311B381B5B6B0020202042444220496E666F1B37311B381B5B6B0050
:204BE000202042696E6420496E666F1B37311B381B5B6B0020202041505020496E666F1B8D
:204C000037311B381B5B6B00A4530020E86A0200204B00201DAD0100E04D00202C48002056
:204C20008FAD0100493C0200392302003D4602002C4F002068340020904E00200548020029
:204C4000D91C01002DE9FE4F8548874A017885481170864E41705C3070618549086018F076
:204C6000CBFEAD48834D844C4FF0000A4FF6DF7B401D0190B0684FF0FF3120F0CBFC00287A
:204C8000F8D0307818F0A2F95FEA000800F0028101462B780A783078923A57D0921E51D065
:204CA000313A21D0521E4AD0521E04D0D21E3ED0521E38D04DE0B8F8107098F80E00A5F8BC
:204CC0007470AB4F091D85F872000A6849683A60FF2B796002DA5B1CD8B22870504612F014
:204CE000A7FD0FF0B1FF34E00B79CF1C9B1E0CD0DB1E14D1C8780D2811D03069A84920F07B
:204D000081FCA84820F02CFB09E03B783BB9B97841F002018DF80010694620F061FA3846CD
:204D200012F086FD15E0CD215246032304E08DF800A0C1216A46082317F0C4FC09E016F0D1
:204D400029FE06E0C81C06F039FB02E0081D11F044FE474638784FF00109712822DC712838
:204D60004ED0652810DC652862D0801F70D0423800F08480183868D0401E63D0401E0128F0
:204D80007CD9801E57D069E066384DD0801E47D0801E032872D9001F3ED0401E38D0401E3B
:204DA00032D05BE091280FDC912867D07238022864D9C01E20D0401E1AD0401E5ED0C01E91
:204DC0005CD0801E5AD049E092380DD0C01E012854D93038062851D91B384FD0801E0128E2
:204DE0004CD909384AD039E0FB6A002B46D031E0BB68002B42D02DE07B69002B3ED029E0D0
:204E0000FB68002B3AD025E0FB68002B36D021E0FB68002B32D01DE0FB68002B2ED019E04E
:204E2000FB68002B2AD015E0FB68002B26D011E0FB681BB30EE0786908B11CF0BBFBFB69A1
:204E4000E3B107E07B69CBB104E07B69B3B101E0BB689BB118461CF0ADFB0FE0D14610E0F3
:204E6000201B00200C280020D3680020904900201C4B00202C4800206834002040461EF0C4
:204E800013FDB9F1010F05D0B8F1000F02D038461EF00AFD2889002800F0C780810909D3E0
:204EA0000EF02EFA0EF0EEFD298921F020000BEA01012981C109C0F09F802078012840F0D5
:204EC000B380E078012840F0AF80616AE769124B880000EBC100C0191F7800F110081B2F50
:204EE00023D1184659A104221EF0E0FA002829D0094857A104221EF0D9FA08B3064855A1E8
:204F000004221EF0D3FAC8B1034853A104221EF0CDFA88B102E0C0469C34002051484FA143
:204F200006221EF0C3FA002858D1402F0BDD5B2FBCBF2037FFB206E0FD2704E0FC2702E0D6
:204F4000FB2700E0FA2798F805903946404610F079F8012842D0E169606A0D3F24D00E3FB7
:204F600012D0643F06D07D3F35D0781E31D035E094480020CF68A06A002F07BF8868401EE9
:204F8000C968E161606220E0B9F1000F02D098F80500D0B1216A8868401E606214E0C046A6
:204FA000A0860100FC490020820002EBC002521802F110010F681FB1896831B1884704E0F9
:204FC000A062C4F824A08968E161504609F072FE04E0504600E001201BF0D8FE21485146C1
:204FE000052215F0E4F860690199052220F0DFF8288920F040002881010A0AD3504612F00E
:2050000017FC29894FF67F7021F080070840288138462A6C800A03D3E8780AB1082190477F
:205020003078A5F808A001E0FEE73078F168890808D3C42152466B4617F076FBF06820F042
:205040000200F06016F012FD14E6C0461B5B41001B5B42001B5B43001B5B44001B000000EC
:205060000000C0469C3400202DE9F04FD548D04CDFF85493DFF85483ADF1140D0191090CDA
:2050800080F0D2810199490838BF0020C0F0D6816768066820F0B2FA4FF47A754FF6FF7263
:2050A0007043B0FBF5F081B267B13B887888CB1A9BB2984210DDC01A8242C8BF82B2FF68E6
:2050C000002FF2D14FF6FF70904200F092802078012120F0EBF88CE0B87902287CD020F086
:2050E0008DFA97F8382046434946B6FBF5F001F1090338801878904266DD97F83600FF284D
:2051000008D197F83800401C87F8380097F8370087F8360097F8356097F839300020012103
:2051200001E0401CC0B283420FDD97F8365001FA00F285F0FF052A42F3D03618814097F8C7
:205140003600F6B2014387F8361097F83400B98F10FB06F2891A89B28842C7BFFF2087F88E
:205160003600011C97F8360099F82220FF2818BF97F83A0006D140460078642510FB02F220
:2051800012FB05F0788046B9388D3E7A40F020003885386C87F82E600BE03A8D4FF6DF7095
:2051A000104038853D6C87F82E6097F8342012FB06507862F879CEB287F82D0007F1100067
:2051C0007E8404F089FF10E0B87E97F82A10FA8BE9231BF09FFE05E0387CFF2802D0B86976
:2051E0001EF062FB38461CF0CFFC2078012117F01BFF019880F0010020E12878012840F010
:20520000108195F8338095F813A06F6995F83100698802221DF04AF905F11C0405F1020B69
:2052200006460020002E02907BD1687F400876D3A87FCDF80CA01FF0A7FDBA4605F1100924
:20524000071C60D01C2013F013FA061C59D000211C2214F0ACFFA87F69461EF030FA9DF8B3
:2052600001000221307530461CF0EEF86888317DB08095F83100FF23F07103FA01F070741C
:2052800078680078307495F83000B07495F8331011FB00F0303080B21EF0EFF90746B76178
:2052A00027B930461CF070FC00262AE01A20387000237B701A467A80E0885946B880B81D92
:2052C0001EF0C2FBE078414BF87303F1200000883882608BB88560897882A0783875207BF3
:2052E000787599F80000B87599F80100F87599F902003876039A7A76C7F81CA007F1300191
:20530000B962304600E000200028064600F08980274886F808800078012117F085FE002EC8
:205320007FD0307AA8EB0000B0F1FF3F04BF01200290307CFF285FD06078400828BF4FF044
:205340000008317DF07C4018404503DCF074FF2088407074B069B17C227D806A08FB01006D
:2053600021691EF0EBFF029F317D727C012398FBF1F04843A8EB000003FA00F11143C9B2FB
:205380007174BFB1401CFF2202FA00F001437174B769B17C207D08FB0100B884707CFF28E9
:2053A00008D1307CB16919F0FBF9FF20307423E08C54002020F022F92349034B034A0968E8
:2053C00006E0C046C4780200E04D0020204900204FF47A774143B1FBF7F0308093F8221015
:2053E00010781F4610FB01F1787A6423401C10FB01F010FB03F07080F17C327DA8EB010054
:20540000801AB0F1FF3F04D0707CFF2801D0029F3FB1E175707C2076BBF80000214612F0D6
:2054200039FD28461EF040FA0648007817F0CEFD051C7FF4E2AE019880F4004005B0BDE81D
:20544000F08FC0468C540020C47802002DE9F04FADF1840D1B9100241C9206468DF8424034
:20546000D6F828C08DF84340317F8DF84D40B28DADF844400F46ADF85A20F2898DF854700C
:205480006046ADF84A20027802F00303022B8DF8402000F3C08123461D93401C1F9353081D
:2054A0003CD202F00C0EBEF10C0F0CD053093CBF10F8013B8DF84230BEF1080F04BF0123ED
:2054C0008DF84C3001D08DF84C40BEF10C0F0AD0737903F00303012B0CD142F00C0273891B
:2054E0008DF8402004E045780378801C03EB0523ADF84430530911D245780378801C03EBDF
:205500000523ADF8463003784578801C03EB0523ADF8483010F8013B8DF8433010F8013BC1
:2055200032F07F058DF855301ED0037833F003058DF8413040F06B8103F0030EBEF1030F50
:2055400000F0658113F0030F00F101000ED010F8013B02F00305022D8DF8573004BF10F84C
:20556000013B8DF8583001E08DF841401490A0EB0C003F1AFFB2B942C0F24981C91B8DF8D6
:205580005470C8B28DF84D00074300F04481D00907D370891AF042FC002840F03C819DF85E
:2055A000402002F00C002146001F08BF01211E91910933D301211F9180B3B2891FF0E6FC9E
:2055C000904202D1F08D000A0ED21FF0DFFC904222D0F08D01460B0A38BF101C07D39DF8A6
:2055E000402002F0030C2EE07089ADF85A2080461FF0CCFCBDF85A10884205D0404618F03B
:2056000052FA002800F007818448026810A940469047002840F0FF809DF84020F08D02F017
:20562000030C01460B0A0ED2D3090CD39DF8413013F0030F07D102F00C030C2B03D0082B33
:205640001CBF01231D93DFF8DC81BCF1020F00F0BF80BCF1010F00F08D8012F0030F40F07C
:20566000DA806F4A92F82B20012A03D1B779002F00F0D1809DF8542002231A92040A9DF826
:205680004250BDF846B0BDF848A09DF855E09DF857C0DDF850908DF86430B2899DF8437069
:2056A000ADF85C2034D21E9F40461730046897B91D9F1FB1104610A912F0ECFB1F980090B2
:2056C0001C9F0197B07C1B9A0290F37C17A910A810F076FC9FE0307C002C8DF8560000F089
:2056E0009A801FF053FCBDF85C20904240F0938030791F9F00901C9D01971B9A02951D9BA0
:20570000039196F8300010A9049017A8A04782E0ADF830008DF820308DF8227034798DF8EF
:2057200033407189ADF818108DF835E08DF82350ADF826B0ADF828A0CDF82C90307C8DF803
:2057400036C0B27C8DF8320096F830308DF83420334C8DF83730B4F8441096F83270ADF867
:2057600024101A998DF8387006A8ADF82A1004F0B3FC50E01D9FB58937B1000A04D2284685
:2057800010A912F087FBB5899DF85400B6791030C0B21DF072FF071C3DD07D81022038704E
:2057A0003E737C709DF854203A7207F110057D609DF84000800928BF01247C7214997868C8
:2057C0001EF0BCFD40460078394618F0E9FF22E09DF8417040461F30B189036817F0030FBA
:2057E00010D110A807901048ADF8181006A91CF053FC80B1062141730068407B214619F0AB
:2058000089FE08E03BB110A82246984703E08DF84D408DF8544021B0BDE8F08FAC5200200D
:20582000FC480020895000206DE601002DE9FC41C64C0D46C64AC74B94F83A601178401ED0
:20584000072800F2A581DFE810F0870161010001E300C0007B004500080005208DF8010039
:2058600094F83B006DB3E07F002720773946E77742F208000AF070FC0D2694F83B0084F82F
:205880003A6000F0DF0084F83B0004201EF0CEFD207F394606280BD1206948B1027BD309E8
:2058A00003D302F0BF020121027340690028F5D16078002900F06A814FF480414FF47A7222
:2058C00062E140F02000022784F83B003E4684F83A705DE10026012D8DF8016017D01FF03D
:2058E000BBFB78B1052094F83B708DF80100314647F0200084F83B0008200AF02DFC0A20ED
:205900001EF094FD022084F83A00064613E0082031460AF021FC04201EF088FD14F0F8FC6C
:205920000D2084F83A00607826770421C8221FF0BDFC94F83A6094F83B0000F0EF0041E04B
:2059400003208DF801000EB90120E0712078002840F03F81627820691EF009FF002840F0E4
:20596000388110464FF480411AF0D8FA002840F0308100256561A5611CF0E2FE60784FF437
:20598000804117F0FDFDE77994F83A602FB10B2E03D1284684F83A002E46E571217F60786C
:2059A000062904D0E07F062808BFE57706E02577042132221FF07AFC94F83A6094F83B00C7
:2059C00000F0F70084F83B00E2E00221012D8DF8011004D00820002584F83A000DE0002597
:2059E000184684F83A500088D0852E3283201FF069FB032128461BF069FC60782577042155
:205A000032221FF053FC94F83B0000F0FB0099E001208DF8010065B100201F8884F83A006F
:205A20000221D7852E3283201FF04CFB06201EF0FDFC002020776078042132221FF036FC18
:205A400094F83B0000F0FD007CE0012918BF022940F09E806078042132221FF027FC94F8AD
:205A60003B10206A012D46D0022084F83A0000268DF80460267701278DF8017021F0020157
:205A800084F83B10522001A91AF084FF1FF0BAF81AF062FF504D686820B168681BF08AFDCA
:205AA0002E806E60DFF83481D8F800507DB128686F68006A1BF07EFD28681BF07BFD686955
:205AC0001BF078FD28461BF075FD3D1CEFD1404606601EF059F84248007818F0B1FC3046CA
:205AE0001EF0A4FC206A002850D01BF0E5FD206A0028FAD14AE001210028217769D01BF06C
:205B0000DBFD206A0028FAD1BDE8FC8100201EF0AFFF042601208DF80160D0733DB10020B0
:205B200084F83A0084F83B0006201EF07FFC002020776078314632221FF0B8FB94F83B0066
:205B400000F0FE0084F83B0020E0C04608500020E04D002040490020012918BF022917D118
:205B6000012D21D0012007278DF801004FF48051607884F83A7017F003FD002084F83B0041
:205B80006078022141F288321FF090FB94F83A60676AF7B18DF800600A20002103226B46DE
:205BA00019F068FFBDE8FC81002003211BF08EFB04213222607821771FF078FB08200021C7
:205BC0000AF0CAFA0020607760784FF4805117F0D7FCBDE8FC81C046E0540020E854002072
:205BE000FC480020F0B50E467068ADF1140D002800F09C81B068002800F098810025734C4F
:205C00007268757004F10B00177803783FB1B06801210170284603B10846B1684870706807
:205C2000237B877847B1B06801210171284603B10846B16848717068C7785FB128461EF03E
:205C40009DFCB2680121800B917138BF291CB068C171706807793FB3B06801230372B06849
:205C60000C301EF08BFCB1680882184615F026FEB1684861022015F021FEB16888610420FB
:205C800015F01CFEB168C861082015F017FEB1680862102015F012FEB1684862202015F091
:205CA0000DFEB168886270684779618D37B1B068012280F82C20B068C18570688779A18D05
:205CC00037B1B068012280F83020B06841867068C779E18D37B1B068012280F83420B0686D
:205CE000C1867068077A61783FB1B068012280F83820B06880F839107068477AA1783FB1B5
:205D0000B068012280F83A20B06880F83B107068877A617A3FB1B068012280F83C20B068D0
:205D200080F83D107068C77A21793FB1B068012280F83E20B06880F83F107068077B6179D7
:205D40003FB1B068012280F84020B06880F841107068477BA1793FB1B068012280F84220A6
:205D6000B06880F843107068877BE1783FB1B068012280F84420B06880F845107068C77B07
:205D800047B3B068012111226B4680F84610294681201EF077FE9DF80000B16881F847001C
:205DA000B26892F8471099B112F062FCB1688864B268906C002808BF82F8475008D09DF8B6
:205DC00000200DF101011EF0B9FA02E0E04D002095647068007C80B1102012F049FCB168A5
:205DE0000865B168086D40B1012081F84C000B6D1022622029461EF045FE7068E16B477CFE
:205E000037B1B068012280F85420B06881657068877CA17A3FB1B068012280F85C20B06848
:205E200080F85D107068C77C5FB1B068012180F85E10B068082204F140015F301EF07EFAA5
:205E40007068077D67B1B068012180F867101EF001FD0146B068082268301EF06FFA706829
:205E6000477D87B152200DF111011CF0DFFF9DF81170B068012180F8701007B92946B0682B
:205E800080F871107068877D3FB1B068012180F87210B06880F873507068C77DE37957B136
:205EA000B06801212A4680F8741003B10A46B06880F875207068077E217A3FB1B0680122F0
:205EC00080F87620B06880F877107068477E5FB1B1680120184B81F878001F7807B10546C8
:205EE000B06880F879507068877E4FB1B068012180F87A1019F07EFAB16881F87B007068CA
:205F0000C77E47B1B068012180F87C10B168606BC1F880007068007F50B1B068012180F8DF
:205F20008410B168A06BC1F8880001E00220707005B00120F0BDC046D15400202DE9F04F62
:205F4000C44D014695F83B0021F03101ADF1340D00280B9140F05F816878042119F0DEFF40
:205F6000002840F056810B99AF7895F83B0001F03F01012F40EA010085F83B00014600F0E4
:205F800035810120A8701EF05DFA012805D156201CF09CFC08B11FF02DF9AF4C00202071FA
:205FA000E06808B11EF056F8AC4847680023A24680467FB10C24786800781EF0F3F8061C3D
:205FC00005D0327C1AB10020824200F317813F68002FF0D118461CF08DFF002859D1D8F855
:205FE0000470002F55D0786800781EF0DBF8061C4CD0337C002B49D04FF0000844E0746927
:206000000C2018FB00F94C44E079C00838D3786800788DF814002088ADF81600A088ADF86B
:206020001800079A089B0699059819F089FDB0B90DF1240B00210422584614F0B8F874692D
:206040004FF6FF700090CDF804B00A23029302460392CDF810B034F809104C440AE0026836
:206060001189D388009102F10A00019002930391049021887868A288007813F063FC337C13
:2060800008F101005FFA80F84345B8DC3F68002FA9D19AF80200DAF80C20162410FB04F0FE
:2060A00081B256201FF008F80AF10C060A282BD0092825D01DF0CEFF56201CF007FCB0FBBE
:2060C000F4F0C7B238461CF015FF01281CD0336814FB07F082B2002156201EF0D3FC8AF8E5
:2060E00002700DE041680468CAF814101BF062FA9AF81000401E8AF8100020461BF05AFA88
:20610000DAF814000028EDD106F0C4FA1DF0A2FF05F13E035520002101221E461EF0B2FC41
:206120003078012860D14E480078012818BF02283ED14C48006800211EF05CF8002837D167
:206140001EF09AFD002833D10AA8009000211022012304201AF0C2F89DF82800FD2827D0F4
:206160009DF82800022823D005A80021142214F01EF8FF2704200021142205AB8DF82470BD
:206180001BF09EFB002485F83E4037480461012144613246447655201EF094FF03213846A7
:2061A0001BF094F868782C77042116F03DFF4EE095F83B000B99072440F0100001F03F0128
:2061C0002C77014385F83B1000200146FDF71CF910B90FF041FE3AE000201BF09DFE002198
:2061E0002046FFF723FB32E095F83B106878002904BF07242C77F2D00024D4E7716910FB1B
:206200000411C979C90824BF5B1CDBB2401CC0B2DAE695F83B006F7FCFB9810917D295F8A3
:206220003E7077B10B9989080BD31DF005FF04200121FFF7FBFA0B9995F83B0081F0020153
:206240000B910B9901F03F01014385F83B100DB0BDE8F08F0850002040610020D85400205B
:20626000E04D002090500020384E00202DE9F04FA94CDFF8A882DFF8A8B2ADF1340D6078F8
:206280000591090C65D20598800805D30120059FE07087F0020073E10598000938BF002080
:2062A000C0F06E8158462E30A76A00780026B146000921D21FF0A2F9B349E36A09684FF4FA
:2062C0007A7542464143B1FBF5FC92F82410128EACEB0300824238D8B0FBF2F39BB29942A2
:2062E000ACBFDDB20D1CB0FBF2F15143401A80B2ACEB0000E06200E00125EFB1C846F878D0
:20630000A8420ADD401BC0B2F87040B109F101061FFA86F93E467F680CE087F803807868B4
:20632000002E82460CBFC4F828A0706038461BF041F95746002FE2D16078B9F1000F04D1A0
:206340000021E162082117F01BF9059880F0080016E116F03BFE071C00F00F81B87FC0B9F7
:20636000788CA56A132815D1B7F80290281C11D000260188894508D14568002E0CBFA56280
:2063800075601BF017F9284601E0064640680028EFD1A56AB87A97F831102E46022852D110
:2063A000788866B1DFF8E4C13288904204D1B2789CF80030914244D07668002EF4D181467C
:2063C0008A464646002D08BF002004D0012015B16B68002B31D1718E814234DD082012F095
:2063E00047F996F8241070B3A0F8009080F802A0C17000234360A36A7BB9A0629BF82E003B
:2064000000090FD21FF0FAF85F4909684FF47A754143B1FBF5F0E06200E068609BF82E0086
:20642000000910D36078082119F078FD58B96078328E08211EF037FF05E0401C1D4680B205
:20644000C5E7F37096E0524805683878012806D0022840F08F80384615F046FE8AE007F16F
:206460001004B81CBE8908943B7E0690FA7C07967969099397F819B00A923C7F0B9107F12E
:206480001C0604F00C000C280DD0B87F4FF0FE09FF2804D01EF078FC041C10D16AE0002D57
:2064A00068D06C680FE0B088FE211AF04FFD8146B9F1FE0F5ED01EF067FC041C5AD0207835
:2064C0001DF0ACFD05464FF6FF7A0BE020781DF0A5FD054606E0B078FF284BD12D68002D6D
:2064E00048D06C68002C45D0AB68AAF1010823B9A3680BB1B3F8028007E021780220984767
:2065000018B1B0F800801BF055F83389227898450AD03AB943B11CE088500020E04D0020FD
:20652000FC4800209A4514D196F80280B27008980090099B01930A9902910B9A0392CDF864
:2065400010B0079B069A3046214610F08FFB86F80280307800F00C000C28BCD1B0884946A6
:206560001AF0F4FC8146B9F1FE0F03D01EF00CFC041CABD138461DF097F9059880F40040B2
:206580000DB0BDE8F08FC046C4780200044E0020DC5400202DE9F0410E467068ADF1180DDE
:2065A000002800F07381002771687770BA4C087858B1487800280CBF381C012022460121A7
:2065C000D0720B3263201EF07DFD71680D7965B14879224600280CBF381C01200121107386
:2065E0000C326D201EF06EFD71688D79ADB90D7ACDB1088A10F0070F02D0CA68642A12D9E8
:20660000C96811F06BFB3846012109F0A5FDA34A352028211EF056FD04E0C9794FF4005002
:2066200009F09AFD71688D7C45B1888A22462A320221108044201EF045FD71688D7D45B1DC
:20664000088B22462C320221108046201EF03AFD71688D7E45B1888B22462E32022110801B
:2066600083201EF02FFD71688D7F45B1C87F2246521C0121107029201EF024FD716891F8C9
:2066800020504DB191F821002246921C012110702B201EF017FD716891F822504DB191F862
:2066A0002300224609320121107043201EF00AFD716891F824504DB191F825002246121DE1
:2066C000012110702E201EF0FDFC716891F826504DB191F827002246521D012110702F2075
:2066E0001EF0F0FC716891F828504DB191F829002246921D0121107030201EF0E3FC716847
:2067000091F82A504DB191F82B002246D21C012110702C201EF0D6FC716891F82C50A5B16C
:2067200091F82D20102A8DF8002003DD10208DF800000246096B0DF101001DF0FFFD8120AA
:2067400011216A461EF0BEFC716891F8345055B191F835001028C8BF10208A6B0146622038
:206760001EF0B0FC716891F83C5045B1086C22463C320421106084201EF0A4FC716891F8E8
:2067800044504DB191F8450022460A32012110704B201EF097FC716891F8465065B104F144
:2067A00040054731082228461DF0C8FD472008212A461EF087FC716891F84F5035B101F148
:2067C0005002012008211EF07DFC716891F858504DB191F859008DF811000DF11101522094
:2067E0001AF0D8F8716891F85E50DFF8B48045B191F85F0042460121107033201EF062FCDD
:20680000716891F85C502DB391F85D00E51D01212A46287032201EF055FC322039460122D3
:206820002B461EF02FF904F108033320394601221EF028F91B48E1790078012904D04FF417
:20684000006116F09DFE04E04FF4006164221EF02DFD716891F8607047B191F86100124981
:2068600008707168114A91F86100107091F8627027B1486E716842462C32106091F8687089
:2068800037B1C86E42463032106001E00220707006B00120BDE8F081E04D0020F44A002005
:2068A000E84D0020FC480020D154002084490020BB482DE9F0471CC8ADF1280D69461CC15A
:2068C0001CC81CC10DC881E80D00B64B0093DFF8DC82C8F8043003F11004C8F80840B24DE0
:2068E000019405F11400029005F12C02039205F14401049105F17C09CDF8149005F15C06A2
:206900000696AB4F0795B0E8105407F16403A3E8105490E8115083E81150B2E8181007F19C
:206920003400A0E818101CCA07F14C0A80E81C001822504610F092FE97F8580040F08000C4
